{
  "contractName": "NewNote",
  "abi": [
    {
      "inputs": [
        {
          "internalType": "string",
          "name": "",
          "type": "string"
        }
      ],
      "name": "users",
      "outputs": [
        {
          "internalType": "string",
          "name": "name",
          "type": "string"
        },
        {
          "internalType": "uint256",
          "name": "number",
          "type": "uint256"
        },
        {
          "internalType": "string",
          "name": "adress",
          "type": "string"
        }
      ],
      "stateMutability": "view",
      "type": "function",
      "constant": true
    },
    {
      "inputs": [
        {
          "internalType": "string",
          "name": "name",
          "type": "string"
        },
        {
          "internalType": "uint256",
          "name": "number",
          "type": "uint256"
        },
        {
          "internalType": "string",
          "name": "adress",
          "type": "string"
        }
      ],
      "name": "SetUser",
      "outputs": [],
      "stateMutability": "nonpayable",
      "type": "function"
    },
    {
      "inputs": [
        {
          "internalType": "string",
          "name": "name",
          "type": "string"
        }
      ],
      "name": "GetUser",
      "outputs": [
        {
          "internalType": "uint256",
          "name": "number",
          "type": "uint256"
        },
        {
          "internalType": "string",
          "name": "adress",
          "type": "string"
        }
      ],
      "stateMutability": "view",
      "type": "function",
      "constant": true
    }
  ],
  "bytecode": "0x608060405234801561001057600080fd5b50610873806100206000396000f3fe608060405234801561001057600080fd5b50600436106100415760003560e01c80635a12b58114610046578063689e1c03146100775780637a1d6c6c146100a9575b600080fd5b610060600480360381019061005b9190610573565b6100c5565b60405161006e92919061065d565b60405180910390f35b610091600480360381019061008c9190610573565b6101a1565b6040516100a09392919061068d565b60405180910390f35b6100c360048036038101906100be91906106fe565b6102f1565b005b600060606000836040516100d991906107c5565b9081526020016040518091039020600101546000846040516100fb91906107c5565b90815260200160405180910390206002018080546101189061080b565b80601f01602080910402602001604051908101604052809291908181526020018280546101449061080b565b80156101915780601f1061016657610100808354040283529160200191610191565b820191906000526020600020905b81548152906001019060200180831161017457829003601f168201915b5050505050905091509150915091565b6000818051602081018201805184825260208301602085012081835280955050505050506000915090508060000180546101da9061080b565b80601f01602080910402602001604051908101604052809291908181526020018280546102069061080b565b80156102535780601f1061022857610100808354040283529160200191610253565b820191906000526020600020905b81548152906001019060200180831161023657829003601f168201915b50505050509080600101549080600201805461026e9061080b565b80601f016020809104026020016040519081016040528092919081815260200182805461029a9061080b565b80156102e75780601f106102bc576101008083540402835291602001916102e7565b820191906000526020600020905b8154815290600101906020018083116102ca57829003601f168201915b5050505050905083565b60405180606001604052808481526020018381526020018281525060008460405161031c91906107c5565b90815260200160405180910390206000820151816000019080519060200190610346929190610376565b5060208201518160010155604082015181600201908051906020019061036d929190610376565b50905050505050565b8280546103829061080b565b90600052602060002090601f0160209004810192826103a457600085556103eb565b82601f106103bd57805160ff19168380011785556103eb565b828001600101855582156103eb579182015b828111156103ea5782518255916020019190600101906103cf565b5b5090506103f891906103fc565b5090565b5b808211156104155760008160009055506001016103fd565b5090565b6000604051905090565b600080fd5b600080fd5b600080fd5b600080fd5b6000601f19601f8301169050919050565b7f4e487b7100000000000000000000000000000000000000000000000000000000600052604160045260246000fd5b61048082610437565b810181811067ffffffffffffffff8211171561049f5761049e610448565b5b80604052505050565b60006104b2610419565b90506104be8282610477565b919050565b600067ffffffffffffffff8211156104de576104dd610448565b5b6104e782610437565b9050602081019050919050565b82818337600083830152505050565b6000610516610511846104c3565b6104a8565b90508281526020810184848401111561053257610531610432565b5b61053d8482856104f4565b509392505050565b600082601f83011261055a5761055961042d565b5b813561056a848260208601610503565b91505092915050565b60006020828403121561058957610588610423565b5b600082013567ffffffffffffffff8111156105a7576105a6610428565b5b6105b384828501610545565b91505092915050565b6000819050919050565b6105cf816105bc565b82525050565b600081519050919050565b600082825260208201905092915050565b60005b8381101561060f5780820151818401526020810190506105f4565b8381111561061e576000848401525b50505050565b600061062f826105d5565b61063981856105e0565b93506106498185602086016105f1565b61065281610437565b840191505092915050565b600060408201905061067260008301856105c6565b81810360208301526106848184610624565b90509392505050565b600060608201905081810360008301526106a78186610624565b90506106b660208301856105c6565b81810360408301526106c88184610624565b9050949350505050565b6106db816105bc565b81146106e657600080fd5b50565b6000813590506106f8816106d2565b92915050565b60008060006060848603121561071757610716610423565b5b600084013567ffffffffffffffff81111561073557610734610428565b5b61074186828701610545565b9350506020610752868287016106e9565b925050604084013567ffffffffffffffff81111561077357610772610428565b5b61077f86828701610545565b9150509250925092565b600081905092915050565b600061079f826105d5565b6107a98185610789565b93506107b98185602086016105f1565b80840191505092915050565b60006107d18284610794565b915081905092915050565b7f4e487b7100000000000000000000000000000000000000000000000000000000600052602260045260246000fd5b6000600282049050600182168061082357607f821691505b60208210811415610837576108366107dc565b5b5091905056fea264697066735822122075e367c3d08a958310171410bc78781fe7c8de7b2842f3ff3e7b5377c9c7127b64736f6c634300080c0033",
  "immutableReferences": {},
  "source": "// SPDX-License-Identifier: MIT\npragma solidity >=0.4.22 <0.9.0;\n\ncontract NewNote {\n struct user{\n   string name;\n   uint number;\n   string adress;\n }\n mapping (string => user) public users;\n\nfunction SetUser(string memory name, uint number, string memory adress) public {\n  users[name] = user (name, number,adress);\n}\nfunction GetUser(string memory name)  public view returns (uint number, string memory adress){\n  return (users[name].number, users[name].adress);\n\n}  \n}\n",
  "sourcePath": "D:\\!\\sol\\SIMPLEDATA\\contracts\\NewNote.sol",
  "compiler": {
    "name": "solc",
    "version": "0.8.12+commit.f00d7308.Emscripten.clang"
  },
  "schemaVersion": "3.4.6",
  "updatedAt": "2022-03-21T13:44:10.653Z",
  "networkType": "ethereum",
  "devdoc": {
    "kind": "dev",
    "methods": {},
    "version": 1
  },
  "userdoc": {
    "kind": "user",
    "methods": {},
    "version": 1
  }
}