{
  "contractName": "Owner",
  "abi": [
    {
      "inputs": [],
      "stateMutability": "nonpayable",
      "type": "constructor"
    },
    {
      "inputs": [
        {
          "internalType": "string",
          "name": "",
          "type": "string"
        }
      ],
      "name": "users",
      "outputs": [
        {
          "internalType": "string",
          "name": "name",
          "type": "string"
        },
        {
          "internalType": "uint256",
          "name": "number",
          "type": "uint256"
        },
        {
          "internalType": "uint256",
          "name": "age",
          "type": "uint256"
        }
      ],
      "stateMutability": "view",
      "type": "function",
      "constant": true
    },
    {
      "inputs": [
        {
          "internalType": "string",
          "name": "name",
          "type": "string"
        },
        {
          "internalType": "uint256",
          "name": "number",
          "type": "uint256"
        },
        {
          "internalType": "uint256",
          "name": "age",
          "type": "uint256"
        }
      ],
      "name": "SetUser",
      "outputs": [],
      "stateMutability": "nonpayable",
      "type": "function"
    },
    {
      "inputs": [
        {
          "internalType": "string",
          "name": "name",
          "type": "string"
        }
      ],
      "name": "GetUser",
      "outputs": [
        {
          "internalType": "uint256",
          "name": "number",
          "type": "uint256"
        },
        {
          "internalType": "uint256",
          "name": "age",
          "type": "uint256"
        }
      ],
      "stateMutability": "view",
      "type": "function",
      "constant": true
    }
  ],
  "bytecode": "0x608060405234801561001057600080fd5b50336000806101000a81548173ffffffffffffffffffffffffffffffffffffffff021916908373ffffffffffffffffffffffffffffffffffffffff1602179055506108aa806100606000396000f3fe608060405234801561001057600080fd5b50600436106100415760003560e01c8063224328eb146100465780635a12b58114610062578063689e1c0314610093575b600080fd5b610060600480360381019061005b919061059e565b6100c5565b005b61007c6004803603810190610077919061060d565b6101c5565b60405161008a929190610665565b60405180910390f35b6100ad60048036038101906100a8919061060d565b6102a3565b6040516100bc93929190610716565b60405180910390f35b60008054906101000a900473ffffffffffffffffffffffffffffffffffffffff1673ffffffffffffffffffffffffffffffffffffffff163373ffffffffffffffffffffffffffffffffffffffff1614610153576040517f08c379a000000000000000000000000000000000000000000000000000000000815260040161014a906107a0565b60405180910390fd5b60405180606001604052808481526020018381526020018281525060018460405161017e91906107fc565b908152602001604051809103902060008201518160000190805190602001906101a892919061036b565b506020820151816001015560408201518160020155905050505050565b60008060008054906101000a900473ffffffffffffffffffffffffffffffffffffffff1673ffffffffffffffffffffffffffffffffffffffff163373ffffffffffffffffffffffffffffffffffffffff1614610256576040517f08c379a000000000000000000000000000000000000000000000000000000000815260040161024d906107a0565b60405180910390fd5b60018360405161026691906107fc565b90815260200160405180910390206001015460018460405161028891906107fc565b90815260200160405180910390206002015491509150915091565b6001818051602081018201805184825260208301602085012081835280955050505050506000915090508060000180546102dc90610842565b80601f016020809104026020016040519081016040528092919081815260200182805461030890610842565b80156103555780601f1061032a57610100808354040283529160200191610355565b820191906000526020600020905b81548152906001019060200180831161033857829003601f168201915b5050505050908060010154908060020154905083565b82805461037790610842565b90600052602060002090601f01602090048101928261039957600085556103e0565b82601f106103b257805160ff19168380011785556103e0565b828001600101855582156103e0579182015b828111156103df5782518255916020019190600101906103c4565b5b5090506103ed91906103f1565b5090565b5b8082111561040a5760008160009055506001016103f2565b5090565b6000604051905090565b600080fd5b600080fd5b600080fd5b600080fd5b6000601f19601f8301169050919050565b7f4e487b7100000000000000000000000000000000000000000000000000000000600052604160045260246000fd5b6104758261042c565b810181811067ffffffffffffffff821117156104945761049361043d565b5b80604052505050565b60006104a761040e565b90506104b3828261046c565b919050565b600067ffffffffffffffff8211156104d3576104d261043d565b5b6104dc8261042c565b9050602081019050919050565b82818337600083830152505050565b600061050b610506846104b8565b61049d565b90508281526020810184848401111561052757610526610427565b5b6105328482856104e9565b509392505050565b600082601f83011261054f5761054e610422565b5b813561055f8482602086016104f8565b91505092915050565b6000819050919050565b61057b81610568565b811461058657600080fd5b50565b60008135905061059881610572565b92915050565b6000806000606084860312156105b7576105b6610418565b5b600084013567ffffffffffffffff8111156105d5576105d461041d565b5b6105e18682870161053a565b93505060206105f286828701610589565b925050604061060386828701610589565b9150509250925092565b60006020828403121561062357610622610418565b5b600082013567ffffffffffffffff8111156106415761064061041d565b5b61064d8482850161053a565b91505092915050565b61065f81610568565b82525050565b600060408201905061067a6000830185610656565b6106876020830184610656565b9392505050565b600081519050919050565b600082825260208201905092915050565b60005b838110156106c85780820151818401526020810190506106ad565b838111156106d7576000848401525b50505050565b60006106e88261068e565b6106f28185610699565b93506107028185602086016106aa565b61070b8161042c565b840191505092915050565b6000606082019050818103600083015261073081866106dd565b905061073f6020830185610656565b61074c6040830184610656565b949350505050565b7f4e6f74206f776e65720000000000000000000000000000000000000000000000600082015250565b600061078a600983610699565b915061079582610754565b602082019050919050565b600060208201905081810360008301526107b98161077d565b9050919050565b600081905092915050565b60006107d68261068e565b6107e081856107c0565b93506107f08185602086016106aa565b80840191505092915050565b600061080882846107cb565b915081905092915050565b7f4e487b7100000000000000000000000000000000000000000000000000000000600052602260045260246000fd5b6000600282049050600182168061085a57607f821691505b6020821081141561086e5761086d610813565b5b5091905056fea2646970667358221220294f100a996866d740989f186546b2e88045c1548e07d30086de6661b7e6aca564736f6c634300080c0033",
  "immutableReferences": {},
  "source": "// SPDX-License-Identifier: MIT\npragma solidity >=0.4.22 <0.9.0;\n\ncontract Owner {\n  address owner;\n  constructor(){\n    owner = msg.sender;\n  }\n  struct user{\n  string name;\n  uint number;\n  uint age;\n  }\n  mapping (string => user) public users;\n  function SetUser(string memory name, uint number, uint age) public{\n    require(msg.sender == owner, \"Not owner\");\n    users[name] = user(name,number, age);\n  }\nfunction GetUser(string memory name) public view returns (uint number, uint age) {\n   require(msg.sender == owner, \"Not owner\");\n   return (users[name].number, users[name].age);\n}\n}\n",
  "sourcePath": "D:\\!\\sol\\SIMPLEDATA\\contracts\\Owner.sol",
  "compiler": {
    "name": "solc",
    "version": "0.8.12+commit.f00d7308.Emscripten.clang"
  },
  "schemaVersion": "3.4.6",
  "updatedAt": "2022-03-21T13:44:11.482Z",
  "networkType": "ethereum",
  "devdoc": {
    "kind": "dev",
    "methods": {},
    "version": 1
  },
  "userdoc": {
    "kind": "user",
    "methods": {},
    "version": 1
  }
}